{
  "_format": "hh-sol-artifact-1",
  "contractName": "NFT",
  "sourceName": "contracts/NFT.sol",
  "abi": [
    {
      "inputs": [
        {
          "internalType": "string",
          "name": "_name",
          "type": "string"
        },
        {
          "internalType": "string",
          "name": "_symbol",
          "type": "string"
        },
        {
          "internalType": "uint256",
          "name": "_cost",
          "type": "uint256"
        },
        {
          "internalType": "uint256",
          "name": "_maxSupply",
          "type": "uint256"
        },
        {
          "internalType": "uint256",
          "name": "_allowMintingOn",
          "type": "uint256"
        },
        {
          "internalType": "string",
          "name": "_baseURI",
          "type": "string"
        },
        {
          "internalType": "bytes32",
          "name": "_merkleRoot",
          "type": "bytes32"
        }
      ],
      "stateMutability": "nonpayable",
      "type": "constructor"
    },
    {
      "anonymous": false,
      "inputs": [
        {
          "indexed": true,
          "internalType": "address",
          "name": "owner",
          "type": "address"
        },
        {
          "indexed": true,
          "internalType": "address",
          "name": "approved",
          "type": "address"
        },
        {
          "indexed": true,
          "internalType": "uint256",
          "name": "tokenId",
          "type": "uint256"
        }
      ],
      "name": "Approval",
      "type": "event"
    },
    {
      "anonymous": false,
      "inputs": [
        {
          "indexed": true,
          "internalType": "address",
          "name": "owner",
          "type": "address"
        },
        {
          "indexed": true,
          "internalType": "address",
          "name": "operator",
          "type": "address"
        },
        {
          "indexed": false,
          "internalType": "bool",
          "name": "approved",
          "type": "bool"
        }
      ],
      "name": "ApprovalForAll",
      "type": "event"
    },
    {
      "anonymous": false,
      "inputs": [
        {
          "indexed": true,
          "internalType": "bytes32",
          "name": "newMerkleRoot",
          "type": "bytes32"
        }
      ],
      "name": "MerkleRootChanged",
      "type": "event"
    },
    {
      "anonymous": false,
      "inputs": [
        {
          "indexed": false,
          "internalType": "uint256",
          "name": "amount",
          "type": "uint256"
        },
        {
          "indexed": true,
          "internalType": "address",
          "name": "minter",
          "type": "address"
        }
      ],
      "name": "Mint",
      "type": "event"
    },
    {
      "anonymous": false,
      "inputs": [
        {
          "indexed": true,
          "internalType": "address",
          "name": "previousOwner",
          "type": "address"
        },
        {
          "indexed": true,
          "internalType": "address",
          "name": "newOwner",
          "type": "address"
        }
      ],
      "name": "OwnershipTransferred",
      "type": "event"
    },
    {
      "anonymous": false,
      "inputs": [
        {
          "indexed": true,
          "internalType": "address",
          "name": "from",
          "type": "address"
        },
        {
          "indexed": true,
          "internalType": "address",
          "name": "to",
          "type": "address"
        },
        {
          "indexed": true,
          "internalType": "uint256",
          "name": "tokenId",
          "type": "uint256"
        }
      ],
      "name": "Transfer",
      "type": "event"
    },
    {
      "anonymous": false,
      "inputs": [
        {
          "indexed": true,
          "internalType": "bool",
          "name": "whitelistOnly",
          "type": "bool"
        }
      ],
      "name": "WhitelistOnlyChanged",
      "type": "event"
    },
    {
      "anonymous": false,
      "inputs": [
        {
          "indexed": false,
          "internalType": "uint256",
          "name": "amount",
          "type": "uint256"
        },
        {
          "indexed": false,
          "internalType": "address",
          "name": "owner",
          "type": "address"
        }
      ],
      "name": "Withdraw",
      "type": "event"
    },
    {
      "inputs": [],
      "name": "allowMintingOn",
      "outputs": [
        {
          "internalType": "uint256",
          "name": "",
          "type": "uint256"
        }
      ],
      "stateMutability": "view",
      "type": "function"
    },
    {
      "inputs": [
        {
          "internalType": "address",
          "name": "to",
          "type": "address"
        },
        {
          "internalType": "uint256",
          "name": "tokenId",
          "type": "uint256"
        }
      ],
      "name": "approve",
      "outputs": [],
      "stateMutability": "nonpayable",
      "type": "function"
    },
    {
      "inputs": [
        {
          "internalType": "address",
          "name": "owner",
          "type": "address"
        }
      ],
      "name": "balanceOf",
      "outputs": [
        {
          "internalType": "uint256",
          "name": "",
          "type": "uint256"
        }
      ],
      "stateMutability": "view",
      "type": "function"
    },
    {
      "inputs": [],
      "name": "baseExtension",
      "outputs": [
        {
          "internalType": "string",
          "name": "",
          "type": "string"
        }
      ],
      "stateMutability": "view",
      "type": "function"
    },
    {
      "inputs": [],
      "name": "baseURI",
      "outputs": [
        {
          "internalType": "string",
          "name": "",
          "type": "string"
        }
      ],
      "stateMutability": "view",
      "type": "function"
    },
    {
      "inputs": [],
      "name": "cost",
      "outputs": [
        {
          "internalType": "uint256",
          "name": "",
          "type": "uint256"
        }
      ],
      "stateMutability": "view",
      "type": "function"
    },
    {
      "inputs": [
        {
          "internalType": "uint256",
          "name": "tokenId",
          "type": "uint256"
        }
      ],
      "name": "getApproved",
      "outputs": [
        {
          "internalType": "address",
          "name": "",
          "type": "address"
        }
      ],
      "stateMutability": "view",
      "type": "function"
    },
    {
      "inputs": [
        {
          "internalType": "address",
          "name": "owner",
          "type": "address"
        },
        {
          "internalType": "address",
          "name": "operator",
          "type": "address"
        }
      ],
      "name": "isApprovedForAll",
      "outputs": [
        {
          "internalType": "bool",
          "name": "",
          "type": "bool"
        }
      ],
      "stateMutability": "view",
      "type": "function"
    },
    {
      "inputs": [
        {
          "internalType": "address",
          "name": "_address",
          "type": "address"
        },
        {
          "internalType": "bytes32[]",
          "name": "_merkleProof",
          "type": "bytes32[]"
        }
      ],
      "name": "isWhitelisted",
      "outputs": [
        {
          "internalType": "bool",
          "name": "",
          "type": "bool"
        }
      ],
      "stateMutability": "view",
      "type": "function"
    },
    {
      "inputs": [],
      "name": "maxMintAmount",
      "outputs": [
        {
          "internalType": "uint256",
          "name": "",
          "type": "uint256"
        }
      ],
      "stateMutability": "view",
      "type": "function"
    },
    {
      "inputs": [],
      "name": "maxSupply",
      "outputs": [
        {
          "internalType": "uint256",
          "name": "",
          "type": "uint256"
        }
      ],
      "stateMutability": "view",
      "type": "function"
    },
    {
      "inputs": [],
      "name": "merkleRoot",
      "outputs": [
        {
          "internalType": "bytes32",
          "name": "",
          "type": "bytes32"
        }
      ],
      "stateMutability": "view",
      "type": "function"
    },
    {
      "inputs": [
        {
          "internalType": "uint256",
          "name": "_mintAmount",
          "type": "uint256"
        },
        {
          "internalType": "bytes32[]",
          "name": "_merkleProof",
          "type": "bytes32[]"
        }
      ],
      "name": "mint",
      "outputs": [],
      "stateMutability": "payable",
      "type": "function"
    },
    {
      "inputs": [],
      "name": "name",
      "outputs": [
        {
          "internalType": "string",
          "name": "",
          "type": "string"
        }
      ],
      "stateMutability": "view",
      "type": "function"
    },
    {
      "inputs": [],
      "name": "owner",
      "outputs": [
        {
          "internalType": "address",
          "name": "",
          "type": "address"
        }
      ],
      "stateMutability": "view",
      "type": "function"
    },
    {
      "inputs": [
        {
          "internalType": "uint256",
          "name": "tokenId",
          "type": "uint256"
        }
      ],
      "name": "ownerOf",
      "outputs": [
        {
          "internalType": "address",
          "name": "",
          "type": "address"
        }
      ],
      "stateMutability": "view",
      "type": "function"
    },
    {
      "inputs": [],
      "name": "renounceOwnership",
      "outputs": [],
      "stateMutability": "nonpayable",
      "type": "function"
    },
    {
      "inputs": [
        {
          "internalType": "address",
          "name": "from",
          "type": "address"
        },
        {
          "internalType": "address",
          "name": "to",
          "type": "address"
        },
        {
          "internalType": "uint256",
          "name": "tokenId",
          "type": "uint256"
        }
      ],
      "name": "safeTransferFrom",
      "outputs": [],
      "stateMutability": "nonpayable",
      "type": "function"
    },
    {
      "inputs": [
        {
          "internalType": "address",
          "name": "from",
          "type": "address"
        },
        {
          "internalType": "address",
          "name": "to",
          "type": "address"
        },
        {
          "internalType": "uint256",
          "name": "tokenId",
          "type": "uint256"
        },
        {
          "internalType": "bytes",
          "name": "data",
          "type": "bytes"
        }
      ],
      "name": "safeTransferFrom",
      "outputs": [],
      "stateMutability": "nonpayable",
      "type": "function"
    },
    {
      "inputs": [
        {
          "internalType": "address",
          "name": "operator",
          "type": "address"
        },
        {
          "internalType": "bool",
          "name": "approved",
          "type": "bool"
        }
      ],
      "name": "setApprovalForAll",
      "outputs": [],
      "stateMutability": "nonpayable",
      "type": "function"
    },
    {
      "inputs": [
        {
          "internalType": "uint256",
          "name": "_newCost",
          "type": "uint256"
        }
      ],
      "name": "setCost",
      "outputs": [],
      "stateMutability": "nonpayable",
      "type": "function"
    },
    {
      "inputs": [
        {
          "internalType": "uint256",
          "name": "_newMaxMintAmount",
          "type": "uint256"
        }
      ],
      "name": "setMaxMintAmount",
      "outputs": [],
      "stateMutability": "nonpayable",
      "type": "function"
    },
    {
      "inputs": [
        {
          "internalType": "bytes32",
          "name": "_merkleRoot",
          "type": "bytes32"
        }
      ],
      "name": "setMerkleRoot",
      "outputs": [],
      "stateMutability": "nonpayable",
      "type": "function"
    },
    {
      "inputs": [
        {
          "internalType": "uint256",
          "name": "tokenId",
          "type": "uint256"
        },
        {
          "internalType": "string",
          "name": "_tokenURI",
          "type": "string"
        }
      ],
      "name": "setTokenURI",
      "outputs": [],
      "stateMutability": "nonpayable",
      "type": "function"
    },
    {
      "inputs": [
        {
          "internalType": "bool",
          "name": "_whitelistOnly",
          "type": "bool"
        }
      ],
      "name": "setWhitelistOnly",
      "outputs": [],
      "stateMutability": "nonpayable",
      "type": "function"
    },
    {
      "inputs": [
        {
          "internalType": "bytes4",
          "name": "interfaceId",
          "type": "bytes4"
        }
      ],
      "name": "supportsInterface",
      "outputs": [
        {
          "internalType": "bool",
          "name": "",
          "type": "bool"
        }
      ],
      "stateMutability": "view",
      "type": "function"
    },
    {
      "inputs": [],
      "name": "symbol",
      "outputs": [
        {
          "internalType": "string",
          "name": "",
          "type": "string"
        }
      ],
      "stateMutability": "view",
      "type": "function"
    },
    {
      "inputs": [
        {
          "internalType": "uint256",
          "name": "index",
          "type": "uint256"
        }
      ],
      "name": "tokenByIndex",
      "outputs": [
        {
          "internalType": "uint256",
          "name": "",
          "type": "uint256"
        }
      ],
      "stateMutability": "view",
      "type": "function"
    },
    {
      "inputs": [
        {
          "internalType": "address",
          "name": "owner",
          "type": "address"
        },
        {
          "internalType": "uint256",
          "name": "index",
          "type": "uint256"
        }
      ],
      "name": "tokenOfOwnerByIndex",
      "outputs": [
        {
          "internalType": "uint256",
          "name": "",
          "type": "uint256"
        }
      ],
      "stateMutability": "view",
      "type": "function"
    },
    {
      "inputs": [
        {
          "internalType": "uint256",
          "name": "_tokenId",
          "type": "uint256"
        }
      ],
      "name": "tokenURI",
      "outputs": [
        {
          "internalType": "string",
          "name": "",
          "type": "string"
        }
      ],
      "stateMutability": "view",
      "type": "function"
    },
    {
      "inputs": [],
      "name": "totalSupply",
      "outputs": [
        {
          "internalType": "uint256",
          "name": "",
          "type": "uint256"
        }
      ],
      "stateMutability": "view",
      "type": "function"
    },
    {
      "inputs": [
        {
          "internalType": "address",
          "name": "from",
          "type": "address"
        },
        {
          "internalType": "address",
          "name": "to",
          "type": "address"
        },
        {
          "internalType": "uint256",
          "name": "tokenId",
          "type": "uint256"
        }
      ],
      "name": "transferFrom",
      "outputs": [],
      "stateMutability": "nonpayable",
      "type": "function"
    },
    {
      "inputs": [
        {
          "internalType": "address",
          "name": "newOwner",
          "type": "address"
        }
      ],
      "name": "transferOwnership",
      "outputs": [],
      "stateMutability": "nonpayable",
      "type": "function"
    },
    {
      "inputs": [
        {
          "internalType": "address",
          "name": "_owner",
          "type": "address"
        }
      ],
      "name": "walletOfOwner",
      "outputs": [
        {
          "internalType": "uint256[]",
          "name": "",
          "type": "uint256[]"
        }
      ],
      "stateMutability": "view",
      "type": "function"
    },
    {
      "inputs": [],
      "name": "whitelistOnly",
      "outputs": [
        {
          "internalType": "bool",
          "name": "",
          "type": "bool"
        }
      ],
      "stateMutability": "view",
      "type": "function"
    },
    {
      "inputs": [],
      "name": "withdraw",
      "outputs": [],
      "stateMutability": "nonpayable",
      "type": "function"
    }
  ],
  "bytecode": "0x60806040526040518060400160405280600581526020017f2e6a736f6e000000000000000000000000000000000000000000000000000000815250600c90816200004a919062000469565b506005600f556001601260006101000a81548160ff0219169083151502179055503480156200007857600080fd5b5060405162004e5838038062004e5883398181016040528101906200009e919062000720565b86868160009081620000b1919062000469565b508060019081620000c3919062000469565b505050620000e6620000da6200012160201b60201c565b6200012960201b60201c565b84600d8190555083600e819055508260108190555081600b90816200010c919062000469565b50806011819055505050505050505062000830565b600033905090565b6000600a60009054906101000a900473ffffffffffffffffffffffffffffffffffffffff16905081600a60006101000a81548173ffffffffffffffffffffffffffffffffffffffff021916908373ffffffffffffffffffffffffffffffffffffffff1602179055508173ffffffffffffffffffffffffffffffffffffffff168173ffffffffffffffffffffffffffffffffffffffff167f8be0079c531659141344cd1fd0a4f28419497f9722a3daafe3b4186f6b6457e060405160405180910390a35050565b600081519050919050565b7f4e487b7100000000000000000000000000000000000000000000000000000000600052604160045260246000fd5b7f4e487b7100000000000000000000000000000000000000000000000000000000600052602260045260246000fd5b600060028204905060018216806200027157607f821691505b60208210810362000287576200028662000229565b5b50919050565b60008190508160005260206000209050919050565b60006020601f8301049050919050565b600082821b905092915050565b600060088302620002f17fffffffffffffffffffffffffffffffffffffffffffffffffffffffffffffffff82620002b2565b620002fd8683620002b2565b95508019841693508086168417925050509392505050565b6000819050919050565b6000819050919050565b60006200034a620003446200033e8462000315565b6200031f565b62000315565b9050919050565b6000819050919050565b620003668362000329565b6200037e620003758262000351565b848454620002bf565b825550505050565b600090565b6200039562000386565b620003a28184846200035b565b505050565b5b81811015620003ca57620003be6000826200038b565b600181019050620003a8565b5050565b601f8211156200041957620003e3816200028d565b620003ee84620002a2565b81016020851015620003fe578190505b620004166200040d85620002a2565b830182620003a7565b50505b505050565b600082821c905092915050565b60006200043e600019846008026200041e565b1980831691505092915050565b60006200045983836200042b565b9150826002028217905092915050565b6200047482620001ef565b67ffffffffffffffff81111562000490576200048f620001fa565b5b6200049c825462000258565b620004a9828285620003ce565b600060209050601f831160018114620004e15760008415620004cc578287015190505b620004d885826200044b565b86555062000548565b601f198416620004f1866200028d565b60005b828110156200051b57848901518255600182019150602085019450602081019050620004f4565b868310156200053b578489015162000537601f8916826200042b565b8355505b6001600288020188555050505b505050505050565b6000604051905090565b600080fd5b600080fd5b600080fd5b600080fd5b6000601f19601f8301169050919050565b6200058a826200056e565b810181811067ffffffffffffffff82111715620005ac57620005ab620001fa565b5b80604052505050565b6000620005c162000550565b9050620005cf82826200057f565b919050565b600067ffffffffffffffff821115620005f257620005f1620001fa565b5b620005fd826200056e565b9050602081019050919050565b60005b838110156200062a5780820151818401526020810190506200060d565b60008484015250505050565b60006200064d6200064784620005d4565b620005b5565b9050828152602081018484840111156200066c576200066b62000569565b5b620006798482856200060a565b509392505050565b600082601f83011262000699576200069862000564565b5b8151620006ab84826020860162000636565b91505092915050565b620006bf8162000315565b8114620006cb57600080fd5b50565b600081519050620006df81620006b4565b92915050565b6000819050919050565b620006fa81620006e5565b81146200070657600080fd5b50565b6000815190506200071a81620006ef565b92915050565b600080600080600080600060e0888a0312156200074257620007416200055a565b5b600088015167ffffffffffffffff8111156200076357620007626200055f565b5b620007718a828b0162000681565b975050602088015167ffffffffffffffff8111156200079557620007946200055f565b5b620007a38a828b0162000681565b9650506040620007b68a828b01620006ce565b9550506060620007c98a828b01620006ce565b9450506080620007dc8a828b01620006ce565b93505060a088015167ffffffffffffffff8111156200080057620007ff6200055f565b5b6200080e8a828b0162000681565b92505060c0620008218a828b0162000709565b91505092959891949750929550565b61461880620008406000396000f3fe60806040526004361061020f5760003560e01c80634f6ccce711610118578063a22cb465116100a0578063c87b56dd1161006f578063c87b56dd14610790578063d5abeb01146107cd578063e985e9c5146107f8578063ea05a8c614610835578063f2fde38b1461085e5761020f565b8063a22cb465146106f7578063b88d4fde14610720578063ba41b0c614610749578063c6682862146107655761020f565b806370a08231116100e757806370a0823114610624578063715018a6146106615780637cb64759146106785780638da5cb5b146106a157806395d89b41146106cc5761020f565b80634f6ccce7146105425780635a23dd991461057f5780636352211e146105bc5780636c0360eb146105f95761020f565b8063239c70ae1161019b5780633ccfd60b1161016a5780633ccfd60b1461047157806342842e0e14610488578063438b6300146104b157806344a0d68a146104ee5780634b4687b5146105175761020f565b8063239c70ae146103b557806323b872dd146103e05780632eb4a7ab146104095780632f745c59146104345761020f565b8063088a4ed0116101e2578063088a4ed0146102e4578063095ea7b31461030d57806313faede614610336578063162094c41461036157806318160ddd1461038a5761020f565b8063014679961461021457806301ffc9a71461023f57806306fdde031461027c578063081812fc146102a7575b600080fd5b34801561022057600080fd5b50610229610887565b6040516102369190612b05565b60405180910390f35b34801561024b57600080fd5b5061026660048036038101906102619190612b8c565b61088d565b6040516102739190612bd4565b60405180910390f35b34801561028857600080fd5b50610291610907565b60405161029e9190612c7f565b60405180910390f35b3480156102b357600080fd5b506102ce60048036038101906102c99190612ccd565b610999565b6040516102db9190612d3b565b60405180910390f35b3480156102f057600080fd5b5061030b60048036038101906103069190612ccd565b6109df565b005b34801561031957600080fd5b50610334600480360381019061032f9190612d82565b6109f1565b005b34801561034257600080fd5b5061034b610b08565b6040516103589190612b05565b60405180910390f35b34801561036d57600080fd5b5061038860048036038101906103839190612ef7565b610b0e565b005b34801561039657600080fd5b5061039f610b83565b6040516103ac9190612b05565b60405180910390f35b3480156103c157600080fd5b506103ca610b90565b6040516103d79190612b05565b60405180910390f35b3480156103ec57600080fd5b5061040760048036038101906104029190612f53565b610b96565b005b34801561041557600080fd5b5061041e610bf6565b60405161042b9190612fbf565b60405180910390f35b34801561044057600080fd5b5061045b60048036038101906104569190612d82565b610bfc565b6040516104689190612b05565b60405180910390f35b34801561047d57600080fd5b50610486610ca1565b005b34801561049457600080fd5b506104af60048036038101906104aa9190612f53565b610d61565b005b3480156104bd57600080fd5b506104d860048036038101906104d39190612fda565b610d81565b6040516104e591906130c5565b60405180910390f35b3480156104fa57600080fd5b5061051560048036038101906105109190612ccd565b610e2f565b005b34801561052357600080fd5b5061052c610e41565b6040516105399190612bd4565b60405180910390f35b34801561054e57600080fd5b5061056960048036038101906105649190612ccd565b610e54565b6040516105769190612b05565b60405180910390f35b34801561058b57600080fd5b506105a660048036038101906105a19190613147565b610ec5565b6040516105b39190612bd4565b60405180910390f35b3480156105c857600080fd5b506105e360048036038101906105de9190612ccd565b610f49565b6040516105f09190612d3b565b60405180910390f35b34801561060557600080fd5b5061060e610ffa565b60405161061b9190612c7f565b60405180910390f35b34801561063057600080fd5b5061064b60048036038101906106469190612fda565b611088565b6040516106589190612b05565b60405180910390f35b34801561066d57600080fd5b5061067661113f565b005b34801561068457600080fd5b5061069f600480360381019061069a91906131d3565b611153565b005b3480156106ad57600080fd5b506106b6611192565b6040516106c39190612d3b565b60405180910390f35b3480156106d857600080fd5b506106e16111bc565b6040516106ee9190612c7f565b60405180910390f35b34801561070357600080fd5b5061071e6004803603810190610719919061322c565b61124e565b005b34801561072c57600080fd5b506107476004803603810190610742919061330d565b611264565b005b610763600480360381019061075e9190613390565b6112c6565b005b34801561077157600080fd5b5061077a6114c1565b6040516107879190612c7f565b60405180910390f35b34801561079c57600080fd5b506107b760048036038101906107b29190612ccd565b61154f565b6040516107c49190612c7f565b60405180910390f35b3480156107d957600080fd5b506107e2611683565b6040516107ef9190612b05565b60405180910390f35b34801561080457600080fd5b5061081f600480360381019061081a91906133f0565b611689565b60405161082c9190612bd4565b60405180910390f35b34801561084157600080fd5b5061085c60048036038101906108579190613430565b61171d565b005b34801561086a57600080fd5b5061088560048036038101906108809190612fda565b611771565b005b60105481565b60007f780e9d63000000000000000000000000000000000000000000000000000000007bffffffffffffffffffffffffffffffffffffffffffffffffffffffff1916827bffffffffffffffffffffffffffffffffffffffffffffffffffffffff1916148061090057506108ff826117f4565b5b9050919050565b6060600080546109169061348c565b80601f01602080910402602001604051908101604052809291908181526020018280546109429061348c565b801561098f5780601f106109645761010080835404028352916020019161098f565b820191906000526020600020905b81548152906001019060200180831161097257829003601f168201915b5050505050905090565b60006109a4826118d6565b6004600083815260200190815260200160002060009054906101000a900473ffffffffffffffffffffffffffffffffffffffff169050919050565b6109e7611921565b80600f8190555050565b60006109fc82610f49565b90508073ffffffffffffffffffffffffffffffffffffffff168373ffffffffffffffffffffffffffffffffffffffff1603610a6c576040517f08c379a0000000000000000000000000000000000000000000000000000000008152600401610a639061352f565b60405180910390fd5b8073ffffffffffffffffffffffffffffffffffffffff16610a8b61199f565b73ffffffffffffffffffffffffffffffffffffffff161480610aba5750610ab981610ab461199f565b611689565b5b610af9576040517f08c379a0000000000000000000000000000000000000000000000000000000008152600401610af0906135c1565b60405180910390fd5b610b0383836119a7565b505050565b600d5481565b610b16611921565b610b1f82611a60565b610b5e576040517f08c379a0000000000000000000000000000000000000000000000000000000008152600401610b5590613653565b60405180910390fd5b80601360008481526020019081526020016000209081610b7e919061381f565b505050565b6000600880549050905090565b600f5481565b610ba7610ba161199f565b82611acc565b610be6576040517f08c379a0000000000000000000000000000000000000000000000000000000008152600401610bdd90613963565b60405180910390fd5b610bf1838383611b61565b505050565b60115481565b6000610c0783611088565b8210610c48576040517f08c379a0000000000000000000000000000000000000000000000000000000008152600401610c3f906139f5565b60405180910390fd5b600660008473ffffffffffffffffffffffffffffffffffffffff1673ffffffffffffffffffffffffffffffffffffffff168152602001908152602001600020600083815260200190815260200160002054905092915050565b610ca9611921565b600047905060003373ffffffffffffffffffffffffffffffffffffffff1682604051610cd490613a46565b60006040518083038185875af1925050503d8060008114610d11576040519150601f19603f3d011682016040523d82523d6000602084013e610d16565b606091505b5050905080610d2457600080fd5b7f8353ffcac0876ad14e226d9783c04540bfebf13871e868157d2a391cad98e9188233604051610d55929190613a5b565b60405180910390a15050565b610d7c83838360405180602001604052806000815250611264565b505050565b60606000610d8e83611088565b905060008167ffffffffffffffff811115610dac57610dab612dcc565b5b604051908082528060200260200182016040528015610dda5781602001602082028036833780820191505090505b50905060005b82811015610e2457610df28582610bfc565b828281518110610e0557610e04613a84565b5b6020026020010181815250508080610e1c90613ae2565b915050610de0565b508092505050919050565b610e37611921565b80600d8190555050565b601260009054906101000a900460ff1681565b6000610e5e610b83565b8210610e9f576040517f08c379a0000000000000000000000000000000000000000000000000000000008152600401610e9690613b9c565b60405180910390fd5b60088281548110610eb357610eb2613a84565b5b90600052602060002001549050919050565b60008084604051602001610ed99190613c04565b604051602081830303815290604052805190602001209050610f3f848480806020026020016040519081016040528093929190818152602001838360200280828437600081840152601f19601f8201169050808301925050505050505060115483611dc7565b9150509392505050565b6000806002600084815260200190815260200160002060009054906101000a900473ffffffffffffffffffffffffffffffffffffffff169050600073ffffffffffffffffffffffffffffffffffffffff168173ffffffffffffffffffffffffffffffffffffffff1603610ff1576040517f08c379a0000000000000000000000000000000000000000000000000000000008152600401610fe890613c6b565b60405180910390fd5b80915050919050565b600b80546110079061348c565b80601f01602080910402602001604051908101604052809291908181526020018280546110339061348c565b80156110805780601f1061105557610100808354040283529160200191611080565b820191906000526020600020905b81548152906001019060200180831161106357829003601f168201915b505050505081565b60008073ffffffffffffffffffffffffffffffffffffffff168273ffffffffffffffffffffffffffffffffffffffff16036110f8576040517f08c379a00000000000000000000000000000000000000000000000000000000081526004016110ef90613cfd565b60405180910390fd5b600360008373ffffffffffffffffffffffffffffffffffffffff1673ffffffffffffffffffffffffffffffffffffffff168152602001908152602001600020549050919050565b611147611921565b6111516000611dde565b565b61115b611921565b80601181905550807f1b930366dfeaa7eb3b325021e4ae81e36527063452ee55b86c95f85b36f4c31c60405160405180910390a250565b6000600a60009054906101000a900473ffffffffffffffffffffffffffffffffffffffff16905090565b6060600180546111cb9061348c565b80601f01602080910402602001604051908101604052809291908181526020018280546111f79061348c565b80156112445780601f1061121957610100808354040283529160200191611244565b820191906000526020600020905b81548152906001019060200180831161122757829003601f168201915b5050505050905090565b61126061125961199f565b8383611ea4565b5050565b61127561126f61199f565b83611acc565b6112b4576040517f08c379a00000000000000000000000000000000000000000000000000000000081526004016112ab90613963565b60405180910390fd5b6112c084848484612010565b50505050565b6010544210156112d557600080fd5b600083116112e257600080fd5b82600d546112f09190613d1d565b3410156112fc57600080fd5b600f54831115611341576040517f08c379a000000000000000000000000000000000000000000000000000000000815260040161133890613dd1565b60405180910390fd5b601260009054906101000a900460ff1615611410576000336040516020016113699190613c04565b6040516020818303038152906040528051906020012090506113cf838380806020026020016040519081016040528093929190818152602001838360200280828437600081840152601f19601f8201169050808301925050505050505060115483611dc7565b61140e576040517f08c379a000000000000000000000000000000000000000000000000000000000815260040161140590613e3d565b60405180910390fd5b505b600061141a610b83565b9050600e54848261142b9190613e5d565b111561143657600080fd5b6000600190505b84811161146c576114593382846114549190613e5d565b61206c565b808061146490613ae2565b91505061143d565b503373ffffffffffffffffffffffffffffffffffffffff167ff3cea5493d790af0133817606f7350a91d7f154ea52eaa79d179d4d231e50102856040516114b39190612b05565b60405180910390a250505050565b600c80546114ce9061348c565b80601f01602080910402602001604051908101604052809291908181526020018280546114fa9061348c565b80156115475780601f1061151c57610100808354040283529160200191611547565b820191906000526020600020905b81548152906001019060200180831161152a57829003601f168201915b505050505081565b606061155a82611a60565b611599576040517f08c379a000000000000000000000000000000000000000000000000000000000815260040161159090613f03565b60405180910390fd5b60006013600084815260200190815260200160002080546115b99061348c565b80601f01602080910402602001604051908101604052809291908181526020018280546115e59061348c565b80156116325780601f1061160757610100808354040283529160200191611632565b820191906000526020600020905b81548152906001019060200180831161161557829003601f168201915b5050505050905060008151111561164c578091505061167e565b600b6116578461208a565b600c60405160200161166b93929190613fe2565b6040516020818303038152906040529150505b919050565b600e5481565b6000600560008473ffffffffffffffffffffffffffffffffffffffff1673ffffffffffffffffffffffffffffffffffffffff16815260200190815260200160002060008373ffffffffffffffffffffffffffffffffffffffff1673ffffffffffffffffffffffffffffffffffffffff16815260200190815260200160002060009054906101000a900460ff16905092915050565b611725611921565b80601260006101000a81548160ff0219169083151502179055508015157fac8eec88dbf19d0a1394da50955663d1d27acf4b7777e795bc2d579338ee048560405160405180910390a250565b611779611921565b600073ffffffffffffffffffffffffffffffffffffffff168173ffffffffffffffffffffffffffffffffffffffff16036117e8576040517f08c379a00000000000000000000000000000000000000000000000000000000081526004016117df90614085565b60405180910390fd5b6117f181611dde565b50565b60007f80ac58cd000000000000000000000000000000000000000000000000000000007bffffffffffffffffffffffffffffffffffffffffffffffffffffffff1916827bffffffffffffffffffffffffffffffffffffffffffffffffffffffff191614806118bf57507f5b5e139f000000000000000000000000000000000000000000000000000000007bffffffffffffffffffffffffffffffffffffffffffffffffffffffff1916827bffffffffffffffffffffffffffffffffffffffffffffffffffffffff1916145b806118cf57506118ce826121ea565b5b9050919050565b6118df81611a60565b61191e576040517f08c379a000000000000000000000000000000000000000000000000000000000815260040161191590613c6b565b60405180910390fd5b50565b61192961199f565b73ffffffffffffffffffffffffffffffffffffffff16611947611192565b73ffffffffffffffffffffffffffffffffffffffff161461199d576040517f08c379a0000000000000000000000000000000000000000000000000000000008152600401611994906140f1565b60405180910390fd5b565b600033905090565b816004600083815260200190815260200160002060006101000a81548173ffffffffffffffffffffffffffffffffffffffff021916908373ffffffffffffffffffffffffffffffffffffffff160217905550808273ffffffffffffffffffffffffffffffffffffffff16611a1a83610f49565b73ffffffffffffffffffffffffffffffffffffffff167f8c5be1e5ebec7d5bd14f71427d1e84f3dd0314c0f7b2291e5b200ac8c7c3b92560405160405180910390a45050565b60008073ffffffffffffffffffffffffffffffffffffffff166002600084815260200190815260200160002060009054906101000a900473ffffffffffffffffffffffffffffffffffffffff1673ffffffffffffffffffffffffffffffffffffffff1614159050919050565b600080611ad883610f49565b90508073ffffffffffffffffffffffffffffffffffffffff168473ffffffffffffffffffffffffffffffffffffffff161480611b1a5750611b198185611689565b5b80611b5857508373ffffffffffffffffffffffffffffffffffffffff16611b4084610999565b73ffffffffffffffffffffffffffffffffffffffff16145b91505092915050565b8273ffffffffffffffffffffffffffffffffffffffff16611b8182610f49565b73ffffffffffffffffffffffffffffffffffffffff1614611bd7576040517f08c379a0000000000000000000000000000000000000000000000000000000008152600401611bce90614183565b60405180910390fd5b600073ffffffffffffffffffffffffffffffffffffffff168273ffffffffffffffffffffffffffffffffffffffff1603611c46576040517f08c379a0000000000000000000000000000000000000000000000000000000008152600401611c3d90614215565b60405180910390fd5b611c51838383612254565b611c5c6000826119a7565b6001600360008573ffffffffffffffffffffffffffffffffffffffff1673ffffffffffffffffffffffffffffffffffffffff1681526020019081526020016000206000828254611cac9190614235565b925050819055506001600360008473ffffffffffffffffffffffffffffffffffffffff1673ffffffffffffffffffffffffffffffffffffffff1681526020019081526020016000206000828254611d039190613e5d565b92505081905550816002600083815260200190815260200160002060006101000a81548173ffffffffffffffffffffffffffffffffffffffff021916908373ffffffffffffffffffffffffffffffffffffffff160217905550808273ffffffffffffffffffffffffffffffffffffffff168473ffffffffffffffffffffffffffffffffffffffff167fddf252ad1be2c89b69c2b068fc378daa952ba7f163c4a11628f55a4df523b3ef60405160405180910390a4611dc2838383612366565b505050565b600082611dd4858461236b565b1490509392505050565b6000600a60009054906101000a900473ffffffffffffffffffffffffffffffffffffffff16905081600a60006101000a81548173ffffffffffffffffffffffffffffffffffffffff021916908373ffffffffffffffffffffffffffffffffffffffff1602179055508173ffffffffffffffffffffffffffffffffffffffff168173ffffffffffffffffffffffffffffffffffffffff167f8be0079c531659141344cd1fd0a4f28419497f9722a3daafe3b4186f6b6457e060405160405180910390a35050565b8173ffffffffffffffffffffffffffffffffffffffff168373ffffffffffffffffffffffffffffffffffffffff1603611f12576040517f08c379a0000000000000000000000000000000000000000000000000000000008152600401611f09906142b5565b60405180910390fd5b80600560008573ffffffffffffffffffffffffffffffffffffffff1673ffffffffffffffffffffffffffffffffffffffff16815260200190815260200160002060008473ffffffffffffffffffffffffffffffffffffffff1673ffffffffffffffffffffffffffffffffffffffff16815260200190815260200160002060006101000a81548160ff0219169083151502179055508173ffffffffffffffffffffffffffffffffffffffff168373ffffffffffffffffffffffffffffffffffffffff167f17307eab39ab6107e8899845ad3d59bd9653f200f220920489ca2b5937696c31836040516120039190612bd4565b60405180910390a3505050565b61201b848484611b61565b612027848484846123c1565b612066576040517f08c379a000000000000000000000000000000000000000000000000000000000815260040161205d90614347565b60405180910390fd5b50505050565b612086828260405180602001604052806000815250612548565b5050565b6060600082036120d1576040518060400160405280600181526020017f300000000000000000000000000000000000000000000000000000000000000081525090506121e5565b600082905060005b600082146121035780806120ec90613ae2565b915050600a826120fc9190614396565b91506120d9565b60008167ffffffffffffffff81111561211f5761211e612dcc565b5b6040519080825280601f01601f1916602001820160405280156121515781602001600182028036833780820191505090505b5090505b600085146121de5760018261216a9190614235565b9150600a8561217991906143c7565b60306121859190613e5d565b60f81b81838151811061219b5761219a613a84565b5b60200101907effffffffffffffffffffffffffffffffffffffffffffffffffffffffffffff1916908160001a905350600a856121d79190614396565b9450612155565b8093505050505b919050565b60007f01ffc9a7000000000000000000000000000000000000000000000000000000007bffffffffffffffffffffffffffffffffffffffffffffffffffffffff1916827bffffffffffffffffffffffffffffffffffffffffffffffffffffffff1916149050919050565b61225f8383836125a3565b600073ffffffffffffffffffffffffffffffffffffffff168373ffffffffffffffffffffffffffffffffffffffff16036122a15761229c816125a8565b6122e0565b8173ffffffffffffffffffffffffffffffffffffffff168373ffffffffffffffffffffffffffffffffffffffff16146122df576122de83826125f1565b5b5b600073ffffffffffffffffffffffffffffffffffffffff168273ffffffffffffffffffffffffffffffffffffffff16036123225761231d8161275e565b612361565b8273ffffffffffffffffffffffffffffffffffffffff168273ffffffffffffffffffffffffffffffffffffffff16146123605761235f828261282f565b5b5b505050565b505050565b60008082905060005b84518110156123b6576123a18286838151811061239457612393613a84565b5b60200260200101516128ae565b915080806123ae90613ae2565b915050612374565b508091505092915050565b60006123e28473ffffffffffffffffffffffffffffffffffffffff166128d9565b1561253b578373ffffffffffffffffffffffffffffffffffffffff1663150b7a0261240b61199f565b8786866040518563ffffffff1660e01b815260040161242d949392919061444d565b6020604051808303816000875af192505050801561246957506040513d601f19601f8201168201806040525081019061246691906144ae565b60015b6124eb573d8060008114612499576040519150601f19603f3d011682016040523d82523d6000602084013e61249e565b606091505b5060008151036124e3576040517f08c379a00000000000000000000000000000000000000000000000000000000081526004016124da90614347565b60405180910390fd5b805181602001fd5b63150b7a0260e01b7bffffffffffffffffffffffffffffffffffffffffffffffffffffffff1916817bffffffffffffffffffffffffffffffffffffffffffffffffffffffff191614915050612540565b600190505b949350505050565b61255283836128fc565b61255f60008484846123c1565b61259e576040517f08c379a000000000000000000000000000000000000000000000000000000000815260040161259590614347565b60405180910390fd5b505050565b505050565b6008805490506009600083815260200190815260200160002081905550600881908060018154018082558091505060019003906000526020600020016000909190919091505550565b600060016125fe84611088565b6126089190614235565b90506000600760008481526020019081526020016000205490508181146126ed576000600660008673ffffffffffffffffffffffffffffffffffffffff1673ffffffffffffffffffffffffffffffffffffffff168152602001908152602001600020600084815260200190815260200160002054905080600660008773ffffffffffffffffffffffffffffffffffffffff1673ffffffffffffffffffffffffffffffffffffffff168152602001908152602001600020600084815260200190815260200160002081905550816007600083815260200190815260200160002081905550505b6007600084815260200190815260200160002060009055600660008573ffffffffffffffffffffffffffffffffffffffff1673ffffffffffffffffffffffffffffffffffffffff16815260200190815260200160002060008381526020019081526020016000206000905550505050565b600060016008805490506127729190614235565b90506000600960008481526020019081526020016000205490506000600883815481106127a2576127a1613a84565b5b9060005260206000200154905080600883815481106127c4576127c3613a84565b5b906000526020600020018190555081600960008381526020019081526020016000208190555060096000858152602001908152602001600020600090556008805480612813576128126144db565b5b6001900381819060005260206000200160009055905550505050565b600061283a83611088565b905081600660008573ffffffffffffffffffffffffffffffffffffffff1673ffffffffffffffffffffffffffffffffffffffff168152602001908152602001600020600083815260200190815260200160002081905550806007600084815260200190815260200160002081905550505050565b60008183106128c6576128c18284612ad5565b6128d1565b6128d08383612ad5565b5b905092915050565b6000808273ffffffffffffffffffffffffffffffffffffffff163b119050919050565b600073ffffffffffffffffffffffffffffffffffffffff168273ffffffffffffffffffffffffffffffffffffffff160361296b576040517f08c379a000000000000000000000000000000000000000000000000000000000815260040161296290614556565b60405180910390fd5b61297481611a60565b156129b4576040517f08c379a00000000000000000000000000000000000000000000000000000000081526004016129ab906145c2565b60405180910390fd5b6129c060008383612254565b6001600360008473ffffffffffffffffffffffffffffffffffffffff1673ffffffffffffffffffffffffffffffffffffffff1681526020019081526020016000206000828254612a109190613e5d565b92505081905550816002600083815260200190815260200160002060006101000a81548173ffffffffffffffffffffffffffffffffffffffff021916908373ffffffffffffffffffffffffffffffffffffffff160217905550808273ffffffffffffffffffffffffffffffffffffffff16600073ffffffffffffffffffffffffffffffffffffffff167fddf252ad1be2c89b69c2b068fc378daa952ba7f163c4a11628f55a4df523b3ef60405160405180910390a4612ad160008383612366565b5050565b600082600052816020526040600020905092915050565b6000819050919050565b612aff81612aec565b82525050565b6000602082019050612b1a6000830184612af6565b92915050565b6000604051905090565b600080fd5b600080fd5b60007fffffffff0000000000000000000000000000000000000000000000000000000082169050919050565b612b6981612b34565b8114612b7457600080fd5b50565b600081359050612b8681612b60565b92915050565b600060208284031215612ba257612ba1612b2a565b5b6000612bb084828501612b77565b91505092915050565b60008115159050919050565b612bce81612bb9565b82525050565b6000602082019050612be96000830184612bc5565b92915050565b600081519050919050565b600082825260208201905092915050565b60005b83811015612c29578082015181840152602081019050612c0e565b60008484015250505050565b6000601f19601f8301169050919050565b6000612c5182612bef565b612c5b8185612bfa565b9350612c6b818560208601612c0b565b612c7481612c35565b840191505092915050565b60006020820190508181036000830152612c998184612c46565b905092915050565b612caa81612aec565b8114612cb557600080fd5b50565b600081359050612cc781612ca1565b92915050565b600060208284031215612ce357612ce2612b2a565b5b6000612cf184828501612cb8565b91505092915050565b600073ffffffffffffffffffffffffffffffffffffffff82169050919050565b6000612d2582612cfa565b9050919050565b612d3581612d1a565b82525050565b6000602082019050612d506000830184612d2c565b92915050565b612d5f81612d1a565b8114612d6a57600080fd5b50565b600081359050612d7c81612d56565b92915050565b60008060408385031215612d9957612d98612b2a565b5b6000612da785828601612d6d565b9250506020612db885828601612cb8565b9150509250929050565b600080fd5b600080fd5b7f4e487b7100000000000000000000000000000000000000000000000000000000600052604160045260246000fd5b612e0482612c35565b810181811067ffffffffffffffff82111715612e2357612e22612dcc565b5b80604052505050565b6000612e36612b20565b9050612e428282612dfb565b919050565b600067ffffffffffffffff821115612e6257612e61612dcc565b5b612e6b82612c35565b9050602081019050919050565b82818337600083830152505050565b6000612e9a612e9584612e47565b612e2c565b905082815260208101848484011115612eb657612eb5612dc7565b5b612ec1848285612e78565b509392505050565b600082601f830112612ede57612edd612dc2565b5b8135612eee848260208601612e87565b91505092915050565b60008060408385031215612f0e57612f0d612b2a565b5b6000612f1c85828601612cb8565b925050602083013567ffffffffffffffff811115612f3d57612f3c612b2f565b5b612f4985828601612ec9565b9150509250929050565b600080600060608486031215612f6c57612f6b612b2a565b5b6000612f7a86828701612d6d565b9350506020612f8b86828701612d6d565b9250506040612f9c86828701612cb8565b9150509250925092565b6000819050919050565b612fb981612fa6565b82525050565b6000602082019050612fd46000830184612fb0565b92915050565b600060208284031215612ff057612fef612b2a565b5b6000612ffe84828501612d6d565b91505092915050565b600081519050919050565b600082825260208201905092915050565b6000819050602082019050919050565b61303c81612aec565b82525050565b600061304e8383613033565b60208301905092915050565b6000602082019050919050565b600061307282613007565b61307c8185613012565b935061308783613023565b8060005b838110156130b857815161309f8882613042565b97506130aa8361305a565b92505060018101905061308b565b5085935050505092915050565b600060208201905081810360008301526130df8184613067565b905092915050565b600080fd5b600080fd5b60008083601f84011261310757613106612dc2565b5b8235905067ffffffffffffffff811115613124576131236130e7565b5b6020830191508360208202830111156131405761313f6130ec565b5b9250929050565b6000806000604084860312156131605761315f612b2a565b5b600061316e86828701612d6d565b935050602084013567ffffffffffffffff81111561318f5761318e612b2f565b5b61319b868287016130f1565b92509250509250925092565b6131b081612fa6565b81146131bb57600080fd5b50565b6000813590506131cd816131a7565b92915050565b6000602082840312156131e9576131e8612b2a565b5b60006131f7848285016131be565b91505092915050565b61320981612bb9565b811461321457600080fd5b50565b60008135905061322681613200565b92915050565b6000806040838503121561324357613242612b2a565b5b600061325185828601612d6d565b925050602061326285828601613217565b9150509250929050565b600067ffffffffffffffff82111561328757613286612dcc565b5b61329082612c35565b9050602081019050919050565b60006132b06132ab8461326c565b612e2c565b9050828152602081018484840111156132cc576132cb612dc7565b5b6132d7848285612e78565b509392505050565b600082601f8301126132f4576132f3612dc2565b5b813561330484826020860161329d565b91505092915050565b6000806000806080858703121561332757613326612b2a565b5b600061333587828801612d6d565b945050602061334687828801612d6d565b935050604061335787828801612cb8565b925050606085013567ffffffffffffffff81111561337857613377612b2f565b5b613384878288016132df565b91505092959194509250565b6000806000604084860312156133a9576133a8612b2a565b5b60006133b786828701612cb8565b935050602084013567ffffffffffffffff8111156133d8576133d7612b2f565b5b6133e4868287016130f1565b92509250509250925092565b6000806040838503121561340757613406612b2a565b5b600061341585828601612d6d565b925050602061342685828601612d6d565b9150509250929050565b60006020828403121561344657613445612b2a565b5b600061345484828501613217565b91505092915050565b7f4e487b7100000000000000000000000000000000000000000000000000000000600052602260045260246000fd5b600060028204905060018216806134a457607f821691505b6020821081036134b7576134b661345d565b5b50919050565b7f4552433732313a20617070726f76616c20746f2063757272656e74206f776e6560008201527f7200000000000000000000000000000000000000000000000000000000000000602082015250565b6000613519602183612bfa565b9150613524826134bd565b604082019050919050565b600060208201905081810360008301526135488161350c565b9050919050565b7f4552433732313a20617070726f76652063616c6c6572206973206e6f7420746f60008201527f6b656e206f776e6572206e6f7220617070726f76656420666f7220616c6c0000602082015250565b60006135ab603e83612bfa565b91506135b68261354f565b604082019050919050565b600060208201905081810360008301526135da8161359e565b9050919050565b7f4552433732314d657461646174613a2055524920736574206f66206e6f6e657860008201527f697374656e7420746f6b656e0000000000000000000000000000000000000000602082015250565b600061363d602c83612bfa565b9150613648826135e1565b604082019050919050565b6000602082019050818103600083015261366c81613630565b9050919050565b60008190508160005260206000209050919050565b60006020601f8301049050919050565b600082821b905092915050565b6000600883026136d57fffffffffffffffffffffffffffffffffffffffffffffffffffffffffffffffff82613698565b6136df8683613698565b95508019841693508086168417925050509392505050565b6000819050919050565b600061371c61371761371284612aec565b6136f7565b612aec565b9050919050565b6000819050919050565b61373683613701565b61374a61374282613723565b8484546136a5565b825550505050565b600090565b61375f613752565b61376a81848461372d565b505050565b5b8181101561378e57613783600082613757565b600181019050613770565b5050565b601f8211156137d3576137a481613673565b6137ad84613688565b810160208510156137bc578190505b6137d06137c885613688565b83018261376f565b50505b505050565b600082821c905092915050565b60006137f6600019846008026137d8565b1980831691505092915050565b600061380f83836137e5565b9150826002028217905092915050565b61382882612bef565b67ffffffffffffffff81111561384157613840612dcc565b5b61384b825461348c565b613856828285613792565b600060209050601f8311600181146138895760008415613877578287015190505b6138818582613803565b8655506138e9565b601f19841661389786613673565b60005b828110156138bf5784890151825560018201915060208501945060208101905061389a565b868310156138dc57848901516138d8601f8916826137e5565b8355505b6001600288020188555050505b505050505050565b7f4552433732313a2063616c6c6572206973206e6f7420746f6b656e206f776e6560008201527f72206e6f7220617070726f766564000000000000000000000000000000000000602082015250565b600061394d602e83612bfa565b9150613958826138f1565b604082019050919050565b6000602082019050818103600083015261397c81613940565b9050919050565b7f455243373231456e756d657261626c653a206f776e657220696e646578206f7560008201527f74206f6620626f756e6473000000000000000000000000000000000000000000602082015250565b60006139df602b83612bfa565b91506139ea82613983565b604082019050919050565b60006020820190508181036000830152613a0e816139d2565b9050919050565b600081905092915050565b50565b6000613a30600083613a15565b9150613a3b82613a20565b600082019050919050565b6000613a5182613a23565b9150819050919050565b6000604082019050613a706000830185612af6565b613a7d6020830184612d2c565b9392505050565b7f4e487b7100000000000000000000000000000000000000000000000000000000600052603260045260246000fd5b7f4e487b7100000000000000000000000000000000000000000000000000000000600052601160045260246000fd5b6000613aed82612aec565b91507fffffffffffffffffffffffffffffffffffffffffffffffffffffffffffffffff8203613b1f57613b1e613ab3565b5b600182019050919050565b7f455243373231456e756d657261626c653a20676c6f62616c20696e646578206f60008201527f7574206f6620626f756e64730000000000000000000000000000000000000000602082015250565b6000613b86602c83612bfa565b9150613b9182613b2a565b604082019050919050565b60006020820190508181036000830152613bb581613b79565b9050919050565b60008160601b9050919050565b6000613bd482613bbc565b9050919050565b6000613be682613bc9565b9050919050565b613bfe613bf982612d1a565b613bdb565b82525050565b6000613c108284613bed565b60148201915081905092915050565b7f4552433732313a20696e76616c696420746f6b656e2049440000000000000000600082015250565b6000613c55601883612bfa565b9150613c6082613c1f565b602082019050919050565b60006020820190508181036000830152613c8481613c48565b9050919050565b7f4552433732313a2061646472657373207a65726f206973206e6f74206120766160008201527f6c6964206f776e65720000000000000000000000000000000000000000000000602082015250565b6000613ce7602983612bfa565b9150613cf282613c8b565b604082019050919050565b60006020820190508181036000830152613d1681613cda565b9050919050565b6000613d2882612aec565b9150613d3383612aec565b9250828202613d4181612aec565b91508282048414831517613d5857613d57613ab3565b5b5092915050565b7f43616e6e6f74206d696e74206d6f7265207468616e206d61784d696e74416d6f60008201527f756e740000000000000000000000000000000000000000000000000000000000602082015250565b6000613dbb602383612bfa565b9150613dc682613d5f565b604082019050919050565b60006020820190508181036000830152613dea81613dae565b9050919050565b7f496e76616c6964206d65726b6c652070726f6f66000000000000000000000000600082015250565b6000613e27601483612bfa565b9150613e3282613df1565b602082019050919050565b60006020820190508181036000830152613e5681613e1a565b9050919050565b6000613e6882612aec565b9150613e7383612aec565b9250828201905080821115613e8b57613e8a613ab3565b5b92915050565b7f4552433732314d657461646174613a2055524920717565727920666f72206e6f60008201527f6e6578697374656e7420746f6b656e0000000000000000000000000000000000602082015250565b6000613eed602f83612bfa565b9150613ef882613e91565b604082019050919050565b60006020820190508181036000830152613f1c81613ee0565b9050919050565b600081905092915050565b60008154613f3b8161348c565b613f458186613f23565b94506001821660008114613f605760018114613f7557613fa8565b60ff1983168652811515820286019350613fa8565b613f7e85613673565b60005b83811015613fa057815481890152600182019150602081019050613f81565b838801955050505b50505092915050565b6000613fbc82612bef565b613fc68185613f23565b9350613fd6818560208601612c0b565b80840191505092915050565b6000613fee8286613f2e565b9150613ffa8285613fb1565b91506140068284613f2e565b9150819050949350505050565b7f4f776e61626c653a206e6577206f776e657220697320746865207a65726f206160008201527f6464726573730000000000000000000000000000000000000000000000000000602082015250565b600061406f602683612bfa565b915061407a82614013565b604082019050919050565b6000602082019050818103600083015261409e81614062565b9050919050565b7f4f776e61626c653a2063616c6c6572206973206e6f7420746865206f776e6572600082015250565b60006140db602083612bfa565b91506140e6826140a5565b602082019050919050565b6000602082019050818103600083015261410a816140ce565b9050919050565b7f4552433732313a207472616e736665722066726f6d20696e636f72726563742060008201527f6f776e6572000000000000000000000000000000000000000000000000000000602082015250565b600061416d602583612bfa565b915061417882614111565b604082019050919050565b6000602082019050818103600083015261419c81614160565b9050919050565b7f4552433732313a207472616e7366657220746f20746865207a65726f2061646460008201527f7265737300000000000000000000000000000000000000000000000000000000602082015250565b60006141ff602483612bfa565b915061420a826141a3565b604082019050919050565b6000602082019050818103600083015261422e816141f2565b9050919050565b600061424082612aec565b915061424b83612aec565b925082820390508181111561426357614262613ab3565b5b92915050565b7f4552433732313a20617070726f766520746f2063616c6c657200000000000000600082015250565b600061429f601983612bfa565b91506142aa82614269565b602082019050919050565b600060208201905081810360008301526142ce81614292565b9050919050565b7f4552433732313a207472616e7366657220746f206e6f6e20455243373231526560008201527f63656976657220696d706c656d656e7465720000000000000000000000000000602082015250565b6000614331603283612bfa565b915061433c826142d5565b604082019050919050565b6000602082019050818103600083015261436081614324565b9050919050565b7f4e487b7100000000000000000000000000000000000000000000000000000000600052601260045260246000fd5b60006143a182612aec565b91506143ac83612aec565b9250826143bc576143bb614367565b5b828204905092915050565b60006143d282612aec565b91506143dd83612aec565b9250826143ed576143ec614367565b5b828206905092915050565b600081519050919050565b600082825260208201905092915050565b600061441f826143f8565b6144298185614403565b9350614439818560208601612c0b565b61444281612c35565b840191505092915050565b60006080820190506144626000830187612d2c565b61446f6020830186612d2c565b61447c6040830185612af6565b818103606083015261448e8184614414565b905095945050505050565b6000815190506144a881612b60565b92915050565b6000602082840312156144c4576144c3612b2a565b5b60006144d284828501614499565b91505092915050565b7f4e487b7100000000000000000000000000000000000000000000000000000000600052603160045260246000fd5b7f4552433732313a206d696e7420746f20746865207a65726f2061646472657373600082015250565b6000614540602083612bfa565b915061454b8261450a565b602082019050919050565b6000602082019050818103600083015261456f81614533565b9050919050565b7f4552433732313a20746f6b656e20616c7265616479206d696e74656400000000600082015250565b60006145ac601c83612bfa565b91506145b782614576565b602082019050919050565b600060208201905081810360008301526145db8161459f565b905091905056fea2646970667358221220c47aa13bb558462356d0a74290b03b56431601118c4fda05d18f3eacd451b71564736f6c63430008140033",
  "linkReferences": {},
  "deployedLinkReferences": {}
}